:10074500C100C104C108C107C186C103C101C102FD
:10075500410047004800040107160200160500483D
:10076500005C00001600001600004800540000164A
:1007750000001600004800120000160000160000D8
:10078500480023000016000016000048004900003C
:1007950016000016000048001B0000160000160099
:1007A50000410011004100440042004500004100A5
:1007B5000300410048004100530041002C00410066
:1007C5001A0041000F0041000C00410002004100E9
:1007D5006400410001004100520041002B0041002E
:1007E500510041000E024100100241000D02C105F9
:1007F50057002DC0F9A4B0999282F880908883C6DD
:0A080500A1868E8CC1917C00FFBF1C
:10000E00900004E075F00AA4FFA3E02F90002CF0FE
:10001E00900007E075F00AA4FFA3E02F90001AF0FD
:10002E0090000AE075F00AA4FFA3E02F90000FF0F5
:10003E00120BA6120B93D2AF900051E070097B0108
:10004E007A007904120A5A900051E06401600302AA
:10005E000184300532900004E090005CF0900005C1
:10006E00E090005DF0900007E090005FF0900008D7
:10007E00E0900060F090000AE0900062F090000BBB
:10008E00E0900063F0802090000EE014600C14608D
:10009E000E2402701290005C800890005F80039026
:1000AE0000627415F0A3F07B017A00795C120A5A93
:1000BE0030042AC20490000EE0FF9000747401F028
:1000CE00A37400F0A3741AF0A37401F0A37400F0EB
:1000DE00A3740FF07B017A00792C120B0130082AE1
:1000EE00C20890000EE0FF9000747401F0A374003B
:1000FE00F0A3741AF0A37401F0A37400F0A3740FAC
:10010E00F07B017A00792C120B4E90002CE0FFC38D
:10011E00940A4007EF75F00A848001E4900004F021
:10012E0090002CE075F00A84900005E5F0F0900048
:10013E001AE0FFC3940A4007EF75F00A848001E4C9
:10014E00900007F090001AE075F00A84900008E520
:10015E00F0F090000FE0FFC3940A4007EF75F00A2D
:10016E00848001E490000AF090000FE075F00A849C
:10017E0090000BE5F0F0900051E064026003020283
:01018E00B2BE
:10018F0090006FF030042AC204900010E0FF90003E
:10019F00747401F0A37400F0A37402F0A37401F05F
:1001AF00A37400F0A37464F07B017A00790C120B36
:1001BF000130082AC208900010E0FF90007474010B
:1001CF00F0A37400F0A37402F0A37401F0A3740001
:1001DF00F0A37464F07B017A00790C120B4E90003F
:1001EF000CE0FFC3940A4007EF75F00A848001E426
:1001FF00900054F090000CE075F00A84900055E5E3
:10020F00F0F0900002E0FFC3940A4007EF75F00A88
:10021F00848001E4900057F0900002E075F00A84AA
:10022F00900058E5F0F0900064E0FFC3940A400797
:10023F00EF75F00A848001E490005AF0900064E0BA
:10024F0075F00A8490005BE5F0F0E490006FF09099
:10025F00006FE0FF2454F582E43400F583E0FE7470
:10026F00122FF582E43400F583EEF090006FE00476
:10027F00F0E0B408DAA205B35020900010E014604B
:10028F000C14600E240270129000548008900057D6
:10029F00800390005A7415F0A3F07B017A00795413
:0302AF00120A5AD6
:0B02B200900051E0640360030203E0D1
:1002BD0090006FF030042AC20490000DE0FF900012
:1002CD00747401F0A37400F0A37452F0A37401F0E0
:1002DD00A37400F0A3742BF07B017A007901120B4B
:1002ED000130082AC20890000DE0FF9000747401DF
:1002FD00F0A37400F0A37452F0A37401F0A3740082
:10030D00F0A3742BF07B017A007901120B4E900053
:10031D0001E0FFC3940A4007EF75F00A848001E401
:10032D00900049F0900001E075F00A8490004AE5D4
:10033D00F0F0900052E0FFC3940A4007EF75F00A09
:10034D00848001E490004CF0900052E075F00A8436
:10035D0090004DE5F0F090002BE0FFC3940A4007AC
:10036D00EF75F00A848001E490004FF090002BE0CF
:10037D0075F00A84900050E5F0F0E490006FF09075
:10038D00006FE0FF2449F582E43400F583E0FE744C
:10039D001B2FF582E43400F583EEF090006FE0043E
:1003AD00F0E0B408DAA205B3502090000DE014601F
:1003BD000C14600E24027012900049800890004CBD
:1003CD00800390004F7415F0A3F07B017A007949FA
:0303DD00120A5AA7
:1003E000900051E0640760030200467B017A0079C7
:0703F0001B120A5A0200462D
:03000B000203F7F6
:1003F700C0E0C0F0C083C082C0D075D000C000C0CC
:0D04070001C002C003C004C005C006C0074C
:0F041400120810EF7038900051F0D20630022F0E
:10042300900065F0C202D201F0900065E0FE241254
:10043300F582E43400F583E0FD74232EF582E43481
:0F04430000F583EDF0900065E004F0E0B408DA16
:05045200EF6401704C95
:10045700900065F0F0900065E0FE2404F582E43436
:1004670000F583E0FD745C2EF582E43400F583ED3E
:10047700F0900065E004F0E0B408DA9000517401F0
:10048700F090000EE014600714600C2402700D90C9
:0C049700000EE004F0800590000EE4F080
:1004A300EF6402706ED2029000517402F03006467F
:1004B300900065E4F0F0900065E0FE2404F582E42A
:1004C3003400F583E0FD74542EF582E43400F583A3
:1004D300EDF0900065E004F0E0B408DAC2069000A5
:1004E3002CE090000CF090001AE0900002F09000D5
:0604F3000FE0900064F030
:1004F900900010E014600914600E2402700F80004F
:10050900900010E004F08005900010E4F0EFB403CF
:10051900239000517403F090000DE01460091460F9
:100529000E2402700F800090000DE004F080059009
:10053900000DE4F0EFB40502D204EFB40902D208C9
:10054900EFB407069000517407F0900051E0700F66
:10055900900011E004F0E0B46405E4F01208C390DF
:100569000051E0FFB4010E900044E004F0E0B43221
:1005790004E4F0B205EFB4021D900011E004F0E0CC
:10058900B46405E4F01208C3900044E004F0E0B458
:100599003204E4F0B205900051E0B4031D9000115B
:1005A900E004F0E0B46405E4F01208C3900044E00C
:1005B90004F0E0B43204E4F0B20530031CE5A054C1
:1005C9001F4480F5A075800053A01F900046E004E9
:1005D900F07006900045E004F0900045E0B4011C7D
:1005E900A3E0B4F417900045E4F0A3F0E5A0541F8C
:1005F9004480F5A07580FF53A01FC203900023E03B
:10060900FF900004E06F7043900024E0FF90000524
:10061900E06F7037900026E0FF900007E06F702BC5
:10062900900027E0FF900008E0B5071F900029E03F
:10063900FF90000AE0B5071390002AE0FF90000B35
:10064900E0B50707300104C201D203900051E0640C
:1006590007600302072A900003E004F0E064646085
:100669000302072AF090001BE0701BA3E0701790AB
:10067900001EE07011A3E0700D900021E07007A347
:10068900E0700302072A9000697401F0A37400F076
:10069900A37452F0A37401F0A37400F0A3742BF0B7
:1006A9007B017A007901120AB1900001E0FFC3943D
:1006B9000A400BEF75F00A8490001BF0800590004A
:1006C9001BE4F0900001E075F00A8490001CE5F04D
:1006D900F0900052E0FFC3940A400BEF75F00A84D2
:1006E90090001EF0800590001EE4F0900052E07525
:1006F900F00A8490001FE5F0F090002BE0FFC3940E
:100709000A400BEF75F00A84900021F080059000F3
:1007190021E4F090002BE075F00A84900022E5F0C6
:01072900F0DF
:10072A00D007D006D005D004D003D002D001D00023
:0B073A00D0D0D082D083D0F0D0E032CD
:100B9300538E7F5389F0E4F58A758CDCC28DD28C39
:030BA300D2A922B2
:100A5A00E5A0541F44E0F5A07580FF53A01F900045
:100A6A0047E0FF7401A807088002C333D8FCF58069
:100A7A00E5A0541F44C0F5A053A01F8F82758300C0
:100A8A001209F9242DF582E43400F583E0F580E5B6
:100A9A00A0541F44E0F5A053A01F900047E004F0C3
:070AAA00E0B40802E4F022B1
:1008C30090000FE004F0E0B43C1AE4F090001AE06A
:1008D30004F0E0B43C0EE4F090002CE004F0E0B44B
:1008E3001802E4F090002CE0FFC3940A4007EF7570
:1008F300F00A848001E4900004F090002CE075F08D
:100903000A84900005E5F0F090001AE0FFC3940A12
:100913004007EF75F00A848001E4900007F090002F
:100923001AE075F00A84900008E5F0F090000FE0FB
:10093300FFC3940A4007EF75F00A848001E4900036
:100943000AF090000FE075F00A8490000BE5F0F0D8
:010953002281
:0F0BA600E5A0541F44A0F5A0E4F58053A01F2242
:1008100075B0F0D2C2D2C4E5B0B4F00630C2032045
:10082000C408900053E004F08005E4900053F09079
:100830000053E06403706CF0D20020C40590000007
:1008400004F020C2069000007402F0E5B020E50636
:100850009000007403F0E5B020E4069000007404FA
:10086000F075B00FC2C2C2C4E5B020E0099000002C
:10087000E014900048F0E5B020E10A900000E02488
:1008800003900048F0E5B020E20A900000E0240761
:10089000900048F0E5B020E30A900000E0240B90BF
:1008A0000048F075B00FC2C2C2C4300013E5B0B446
:1008B0000F0E20C20B20C408C200900048E0FF22A7
:0208C0007FFFB8
:0108C2002213
:100B0100EF14601514602B240270417401120A263F
:100B11001209E0641870358030900074E0FBA3E0A6
:100B2100FAA3E0F97401120A261209E0B43C1DE4AB
:100B31008017900077E0FBA3E0FAA3E0F9740112BB
:0D0B41000A261209E0B43C04E4120A48221E
:100B4E00EF146010146023240270391209E0702F24
:100B5E0074178028900074E0FBA3E0FAA3E0F9126A
:100B6E0009E07004743B80148015900077E0FBA3BD
:100B7E00E0FAA3E0F91209E07005743B020A48742A
:050B8E00FF120A2622FF
:100AB100900066EBF0A3EAF0A3E9F090006CE0FB94
:100AC100A3E0FAA3E0F91209E07024743B120A488A
:100AD100900069E0FBA3E0FAA3E0F91209E0700AD3
:100AE100743B120A48900066800890006980039068
:100AF100006CE0FBA3E0FAA3E0F974FF120A2622DE
:030000000209549E
:0C095400787FE4F6D8FD75812102099B34
:1009600002000EE493A3F8E493A34003F68001F29F
:1009700008DFF48029E493A3F85407240CC8C33398
:10098000C4540F4420C8834004F456800146F6DF67
:10099000E4800B0102040810204080900745E47EAB
:1009A000019360BCA3FF543F30E509541FFEE4935C
:1009B000A360010ECF54C025E060A840B8E493A323
:1009C000FAE493A3F8E493A3C8C582C8CAC583CA4E
:1009D000F0A3C8C582C8CAC583CADFE9DEE780BE06
:01080F0000E8
:1009E000BB010689828A83E0225002E722BBFE0215
:0909F000E32289828A83E4932248
:1009F900BB010CE58229F582E5833AF583E02250B3
:100A090006E92582F8E622BBFE06E92582F8E222FC
:0D0A1900E58229F582E5833AF583E4932216
:100A2600BB010989828A83F8E028F022500327F760
:100A360022BBFE05F8E328F3228A838982F8E49331
:020A4600282264
:100A4800BB010689828A83F0225002F722BBFE018D
:020A5800F32287
:00000001FF
